:020000040000FA
:0400000080313F28E4
:100008007E1480312000911E0A280B283D28911269
:1000180023009D181028112815281D1D142815289F
:1000280019289D0190309D003D2819082000AD0039
:100038002D08AF002F088231C922803120002F08F7
:100048000319272828283D28B4302F0203182D2803
:100058002E283D282F08AD00AE012D08C2002E081D
:10006800C3004308AB004208AA0000308131502188
:1000780080317E100900803141282000C201C3016F
:100088007E10200081311A29D7302000BD0017309A
:10009800BE003908B1003808B0003E08B3003D087A
:1000A800B2008031A120803120003108BE00300824
:1000B800BD000130BD020030BE3B3D08BA003A0821
:1000C800BB0000308131C62180312000BA003A08D7
:1000D800BF003F087F391038BA003A08BC003C0816
:1000E800BA003A08B100003082313E228031200047
:1000F8003B08BA003A08B100FE3082313E22803116
:1001080020003F08BA003A08B100003082313E2290
:1001180080310D302000BA00FB30890B9128BA0BD2
:100128009128003220003F08A138BA003A08B100EF
:10013800003082313E22803108002000B501B6012E
:10014800300831040319A928AA28D928B701B70A01
:10015800B6280130B035B10D890BAE280130B40096
:100168003408B707B11FB928BA28AD280130B5350A
:10017800B60D890BBB2831083302031DC52830088A
:100188003202031CC828C928CE283008B202310818
:10019800B33B35140130B136B00C890BCF28013090
:1001A800B702031DD828D928BA283608B10035085F
:1001B800B0000800FB01FC01760877040319E52864
:1001C800E6281529FD01FD0AF2280130F635F70D5C
:1001D800890BEA280130FA007A08FD07F71FF5288D
:1001E800F628E9280130FB35FC0D890BF72877083C
:1001F8007902031D012976087802031C04290529C0
:100208000A297608F8027708F93B7B140130F7369B
:10021800F60C890B0B290130FD02031D1429152941
:10022800F6287C08F7007B08F60008008231B52222
:10023800813123008C018D014C3021008E00023069
:1002480023009E0090309D0008309F0033309B00B3
:1002580020009112210091160B178B1706302000F1
:10026800C1001330C000AD30890B3829C00B3829C4
:10027800C10B3829003282315522813132302000B9
:10028800B8000030B9008031482081312000C20117
:10029800C3014D2980313F282000AC002B08A10064
:1002A8002A08A0000030A200A300B430A400003047
:1002B800A5009630A6000030A700F430A800013051
:1002C800A9008131A121813120002108AB0020083B
:1002D800AA000030F100F2002B08F4002A08F3000D
:1002E8002C088131792181310800F6008231BF2242
:1002F800813180308231792281317608F5000130F0
:10030800F535FF3E031D84297535063E8231792275
:1003180081317108823179228131720882317922E2
:1003280081317308823179228131740882317922CE
:1003380081318231E0228131080020002208240224
:10034800F6002308253BF70022082002F0002308C6
:10035800213BF10026082802F2002708293BF30078
:100368008131E92181317108F9007008F800803184
:10037800DE208131200026087607A0002708773D77
:10038800A10008002000B4008231AB228131803006
:10039800823168228131200034088231682281311B
:1003A8008231A1228131813082316822813101304C
:1003B8008231082281312000B3003308B500823130
:1003C800D2228131200035080800F401F501701CA3
:1003D800EE29EF29F3297208F4077308F53D013077
:1003E800F235F30D890BF4290130F136F00C890B45
:1003F800F92970087104031D022A032AEB297508DC
:10040800F1007408F00008002000B100310C24004D
:10041800031C9612031896169615141C142A152AEE
:10042800112A161611082000B0003008B200240066
:1004380015138231892282312000320808002200F7
:1004480090018C018D018E01083021009000FF3051
:100458008C00FF308D00FF308E003F3023008D0070
:100468003F308C00240090018D0121009517220057
:100478009D0108002000B2008231AB228231803019
:10048800823168228231200032088231682282312A
:10049800200031088231682282318231D2228231B1
:1004A80008008231AB228231803082316822823169
:1004B80000308231682282310030823168228231F4
:1004C8008231D222823108002000B0003008240096
:1004D80091001418702A712A6D2A161B742A752A1D
:1004E800712A8231892282310800F00070082400C4
:1004F80091001418802A812A7D2A161B842A852AAD
:10050800812A8231952282310800240016081F3979
:10051800031D8F2A902A892A1419932A942A892A32
:100528000800240016081F39031D9B2A9C2A952AB7
:1005380014199F2AA02A952A08008231892282311B
:10054800240096149618A92AAA2AA62A08008231F5
:1005580089228231240016141618B32AB42AB02A24
:1005680008008231232282318231D92282318231BC
:10057800E722823108008231952282312400161444
:100588001618C72AC82AC42A0800F00023009E1C8F
:10059800CE2ACF2ACA2A70089A0008002400161505
:1005A8001619D72AD82AD42A0800703021009900B1
:1005B8009801220096010800240016151619E52A4C
:0E05C800E62AE22A08001630210097000800FB
:020000040001F9
:04000E00E43FFF1EAE
:00000001FF
