:020000040000FA
:0400000080314C28D7
:100008007E1480312000911E0A280B284A2891125C
:1000180023009D181028112815281D1D142815289F
:1000280019289D0190309D004A2820004408031992
:100038001E281F282528013022008C002000C4011A
:100048002A2822008C012000C401C40A23001908B0
:100058002000AD002D08AF002F088231E122803149
:10006800B53020002F0203183A283B284A282F08C9
:10007800AD00AE012D08C2002E08C3004308AB0036
:100088004208AA0000308131682180317E100900C1
:1000980080314E282000C201C301C4017E10200017
:1000A8008031AF28D7302000BD001730BE00390896
:1000B800B1003808B0003E08B3003D08B2008031F6
:1000C800EF20803120003108BE003008BD0001302B
:1000D800BD020030BE3B3D08BA003A08BB00003004
:1000E8008131DE2180312000BA003A08BF003F0884
:1000F8007F391038BA003A08BC003C08BA003A0800
:10010800B100003082315622803120003B08BA000D
:100118003A08B100FE3082315622803120003F0873
:10012800BA003A08B10000308231562280310D30D1
:100138002000BA00FB30890B9F28BA0B9F28003299
:1001480020003F08A138BA003A08B10000308231D7
:100158005622803108008231CD22803123008C0163
:100168008D0121008C0122008C01133024009200A3
:10017800283095009601940106302000C100133004
:10018800C000AD30890BC628C00BC628C10BC628D5
:10019800003282316D22803132302000B8000030C8
:1001A800B900803156208031023023009E00903003
:1001B8009D0008309F0033309B00200091122100E1
:1001C80091160B178B172000C201C301C401C40A82
:1001D800EC2880314C282000B501B60130083104E4
:1001E8000319F728F8282729B701B70A0429013085
:1001F800B035B10D890BFC280130B4003408B707BD
:10020800B11F07290829FB280130B535B60D890B20
:10021800092931083302031D132930083202031C4F
:10022800162917291C293008B2023108B33B3514A6
:100238000130B136B00C890B1D290130B702031DFE
:100248002629272908293608B1003508B0000800F2
:10025800FB01FC0176087704031933293429632943
:10026800FD01FD0A40290130F635F70D890B3829C3
:100278000130FA007A08FD07F71F43294429372976
:100288000130FB35FC0D890B452977087902031DE0
:100298004F2976087802031C5229532958297608D1
:1002A800F8027708F93B7B140130F736F60C890B16
:1002B80059290130FD02031D6229632944297C085C
:1002C800F7007B08F60008002000AC002B08A1000E
:1002D8002A08A0000030A200A300B430A400003017
:1002E800A5009630A6000030A700F430A800013021
:1002F800A9008131B921813120002108AB002008F3
:10030800AA000030F100F2002B08F4002A08F300DC
:100318002C088131912181310800F6008231D722E1
:10032800813180308231912281317608F5000130A7
:10033800F535FF3E031D9C297535063E8231912215
:100348008131710882319122813172088231912282
:10035800813173088231912281317408823191226E
:1003680081318231F82281310800200022082402DC
:10037800F6002308253BF70022082002F000230896
:10038800213BF10026082802F2002708293BF30048
:100398008231012281317108F9007008F800813139
:1003A8002C218131200026087607A0002708773DF8
:1003B800A10008002000B4008231C32281318030BE
:1003C80082318022813120003408823180228131BB
:1003D8008231B922813181308231802281310130EC
:1003E8008231202281312000B3003308B5008231E8
:1003F800EA228131200035080800F401F501701C5B
:10040800062A072A0B2A7208F4077308F53D0130FB
:10041800F235F30D890B0C2A0130F136F00C890BFB
:10042800112A70087104031D1A2A1B2A032A750849
:10043800F1007408F00008002000B100310C24001D
:10044800031C9612031896169615141C2C2A2D2A8E
:10045800292A161611082000B0003008B20024001E
:1004680015138231A12282312000320808002200AF
:1004780090018C018D018E01083021009000FF3021
:100488008C00FF308D00FF308E003F3023008D0040
:100498003F308C00240090018D0121009517220027
:1004A8009D0108002000B2008231C32282318030D1
:1004B80082318022823120003208823180228231CA
:1004C800200031088231802282318231EA22823151
:1004D80008008231C3228231803082318022823109
:1004E8000030823180228231003082318022823194
:1004F8008231EA22823108002000B000300824004E
:1005080091001418882A892A852A161B8C2A8D2A74
:10051800892A8231A12282310800F0007008240063
:1005280091001418982A992A952A161B9C2A9D2A04
:10053800992A8231AD2282310800240016081F3919
:10054800031DA72AA82AA12A1419AB2AAC2AA12A72
:100558000800240016081F39031DB32AB42AAD2A3F
:100568001419B72AB82AAD2A08008231A12282318B
:10057800240096149618C12AC22ABE2A080082317D
:10058800A1228231240016141618CB2ACC2AC82A94
:10059800080082313B2282318231F122823182315C
:1005A800FF22823108008231AD22823124001614E4
:1005B8001618DF2AE02ADC2A0800F00023009E1C17
:1005C800E62AE72AE22A70089A000800240016158D
:1005D8001619EF2AF02AEC2A080070302100990039
:1005E8009801220096010800240016151619FD2A04
:0E05F800FE2AFA2A080016302100970008009B
:020000040001F9
:04000E00E43FFF1EAE
:00000001FF
