:020000040000FA
:0400000080314F28D4
:100008007E1480312000911E0A280B284D28911259
:1000180023009D181028112815281D1D142815289F
:1000280019289D0190309D004D282000440803198F
:100038001E281F282528013022008C002000C4011A
:100048002A2822008C012000C401C40A23001908B0
:100058002000AD002D08AF002F0883310C2380311C
:1000680030302000AD002D08F0003130AE002E08F1
:10007800F1002F0882316722803120003108AD005D
:10008800AE012D08AA002E08AB0030088131792175
:1000980080317E100900803151282000C4017E1073
:1000A80020008031B028D7302000BF001730C000B2
:1000B8003B08B3003A08B2004008B5003F08B40056
:1000C80081310021803120003308C0003208BF0090
:1000D8000130BF020030C03B3F08BC003C08BD00F7
:1000E80000308131EF2180312000BC003C08C10084
:1000F80041087F391038BC003C08BE003E08BC00EF
:100108003C08B300003082318122803120003D0854
:10011800BC003C08B300FE308231812280312000CF
:100128004108BC003C08B300003082318122803194
:100138000D302000BC00FB30890BA028BC0BA02888
:10014800003220004108A138BC003C08B300003050
:1001580082318122803108008231F82280312300E7
:100168008C018D0121008C0122008C0113302400A8
:100178009200283095009601940106302000C300B3
:100188001330C200AD30890BC728C20BC728C30B78
:10019800C728003282319822803132302000BA00DC
:1001A8000030BB00803157208031013022008C00A4
:1001B800023023009E0090309D0008309F003330AD
:1001C8009B0020009112210091160B178B1720001D
:1001D800C401C40A0B302000C3002630C2005D30C1
:1001E800890BF428C20BF428C30BF4280032220030
:1001F8008C01FD2880314F282000B701B801320852
:1002080033040319082909293829B901B90A152914
:100218000130B235B30D890B0D290130B60036080F
:10022800B907B31F182919290C290130B735B80D9A
:10023800890B1A2933083502031D24293208340290
:10024800031C272928292D293208B4023308B53B75
:1002580037140130B336B20C890B2E290130B9029C
:10026800031D3729382919293808B3003708B2007F
:100278000800FB01FC017608770403194429452985
:100288007429FD01FD0A51290130F635F70D890B56
:1002980049290130FA007A08FD07F71F5429552922
:1002A80048290130FB35FC0D890B5629770879025E
:1002B800031D602976087802031C632964296929CB
:1002C8007608F8027708F93B7B140130F736F60C0C
:1002D800890B6A290130FD02031D732974295529E8
:1002E8007C08F7007B08F60008002000AC002B080B
:1002F800A1002A08A0000030A200A300B430A40086
:100308000030A5009630A6000030A700F430A80001
:100318000130A9008131CA21813120002108AB00B8
:100328002008AA000030F100F2002B08F4002A0887
:10033800F3002C088131A22181310800F6008331B5
:100348000223813180308231BC2281317608F50068
:100358000130F535FF3E031DAD297535063E823166
:10036800BC22813171088231BC228131720882310C
:10037800BC22813173088231BC22813174088231F8
:10038800BC228131833123238131080020002208D7
:100398002402F6002308253BF70022082002F0007B
:1003A8002308213BF10026082802F2002708293BF0
:1003B800F3008231122281317108F9007008F800C7
:1003C80081313D218131200026087607A0002708C9
:1003D800773DA10008002000B6008231EE2281316D
:1003E80080308231AB228131200036088231AB2245
:1003F80081318231E422813181308231AB228131F5
:1004080001308231312281312000B5003508B70032
:10041800833115238131200037080800F401F501E4
:10042800701C172A182A1C2A7208F4077308F53D4D
:100438000130F235F30D890B1D2A0130F136F00C2D
:10044800890B222A70087104031D2B2A2C2A142ACE
:100458007508F1007408F00008002000B300330CA0
:100468002400031C9612031896169615141C3D2A90
:100478003E2A3A2A161611082000B2003208B400A3
:10048800240015138231CC22823120003408080060
:10049800220090018C018D018E010830210090000E
:1004A800FF308C00FF308D00FF308E003F3023007E
:1004B8008D003F308C00240090018D01210095179C
:1004C80022009D010800F300F31B6B2A6D2A0130FE
:1004D8006E2A0030F20070088600870172088100D9
:1004E80073087F39F2007208F3007335F20071085F
:1004F800860087017208810008002000B40082315C
:10050800EE22823180308231AB22823120003408E1
:100518008231AB228231200033088231AB22823112
:1005280083311523823108008231EE2282318030F6
:100538008231AB22823100308231AB2282310030ED
:100548008231AB22823183311523823108002000A9
:10055800B2003208240091001418B32AB42AB02A31
:10056800161BB72AB82AB42A8231CC228231080055
:10057800F0007008240091001418C32AC42AC02A65
:10058800161BC72AC82AC42A8231D82282310800F9
:10059800240016081F39031DD22AD32ACC2A14197D
:1005A800D62AD72ACC2A0800240016081F39031D8A
:1005B800DE2ADF2AD82A1419E22AE32AD82A0800D0
:1005C8008231CC228231240096149618EC2AED2A26
:1005D800E92A08008231CC22823124001614161828
:1005E800F62AF72AF32A080082314C228231833115
:1005F8001C23823183312A23823108008231D82298
:1006080083312400161416180A2B0B2B072B08000D
:10061800F00023009E1C112B122B0D2B70089A0042
:1006280008002400161516191A2B1B2B172B080067
:1006380070302100990098012200960108002400DA
:1006480016151619282B292B252B080016302100E2
:0606580097000800803449
:020000040001F9
:04000E00E43FFF1EAE
:00000001FF
