:020000040000FA
:0400000080315528CE
:100008007E1480312000911E0A280B285328911253
:1000180023009D181028112815281D1D142815289F
:1000280019289D0190309D00532820004408031989
:100038001E281F282528013022008C002000C4011A
:100048002A2822008C012000C401C40A23001908B0
:100058002000AD002D08B100310883310023803124
:100068005B302000310203183A283B2853282F30F0
:10007800AD002D08F0003030AE002E08F100310838
:1000880082315B22803120003008AD00AE012D089E
:10009800AA002E08AB002F0881316D2180317E1017
:1000A8000900803157282000C4017E1020008031CB
:1000B800B628D7302000BF001730C0003B08B30077
:1000C8003A08B2004008B5003F08B4008031F42077
:1000D800803120003308C0003208BF000130BF0261
:1000E8000030C03B3F08BC003C08BD0000308131F7
:1000F800E32180312000BC003C08C10041087F3961
:100108001038BC003C08BE003E08BC003C08B300E8
:10011800003082317522803120003D08BC003C0847
:10012800B300FE3082317522803120004108BC00C6
:100138003C08B30000308231752280310D30200038
:10014800BC00FB30890BA628BC0BA6280032200077
:100158004108A138BC003C08B30000308231752248
:10016800803108008231EC22803123008C018D011E
:1001780021008C0122008C011330240092002830C9
:1001880095009601940106302000C3001330C20088
:10019800AD30890BCD28C20BCD28C30BCD2800323A
:1001A80082318C22803132302000BA000030BB000E
:1001B80080315D208031023023009E0090309D0008
:1001C80008309F0033309B002000911221009116C7
:1001D8000B178B172000C401C40AF1288031552859
:1001E8002000B701B801320833040319FC28FD28A0
:1001F8002C29B901B90A09290130B235B30D890B87
:1002080001290130B6003608B907B31F0C290D299A
:1002180000290130B735B80D890B0E29330835028E
:10022800031D182932083402031C1B291C29212903
:100238003208B4023308B53B37140130B336B20C78
:10024800890B22290130B902031D2B292C290D29DC
:100258003808B3003708B2000800FB01FC01760833
:1002680077040319382939296829FD01FD0A452928
:100278000130F635F70D890B3D290130FA007A086F
:10028800FD07F71F482949293C290130FB35FC0D9A
:10029800890B4A2977087902031D542976087802C0
:1002A800031C572958295D297608F8027708F93B75
:1002B8007B140130F736F60C890B5E290130FD02FC
:1002C800031D6729682949297C08F7007B08F6007F
:1002D80008002000AC002B08A1002A08A00000306C
:1002E800A200A300B430A4000030A5009630A600F8
:1002F8000030A700F430A8000130A9008131BE21E8
:10030800813120002108AB002008AA000030F1004C
:10031800F2002B08F4002A08F3002C0881319621FA
:1003280081310800F6008231F62281318030823135
:10033800B02281317608F5000130F535FF3E031D06
:10034800A1297535063E8231B0228131710882318A
:10035800B022813172088231B02281317308823132
:10036800B022813174088231B02281318331172360
:1003780081310800200022082402F6002308253BCA
:10038800F70022082002F0002308213BF10026088C
:100398002802F2002708293BF30082310622813126
:1003A8007108F9007008F80081313121813120008D
:1003B80026087607A0002708773DA100080020003E
:1003C800B6008231E2228131803082319F22813130
:1003D8002000360882319F2281318231D822813132
:1003E800813082319F228131013082312522813151
:1003F8002000B5003508B70083310923813120007A
:1004080037080800F401F501701C0B2A0C2A102A81
:100418007208F4077308F53D0130F235F30D890BC6
:10042800112A0130F136F00C890B162A7008710474
:10043800031D1F2A202A082A7508F1007408F000F5
:1004480008002000B300330C2400031C9612031884
:1004580096169615141C312A322A2E2A16161108B9
:100468002000B2003208B400240015138231C022E3
:100478008231200034080800220090018C018D018F
:100488008E01083021009000FF308C00FF308D0075
:10049800FF308E003F3023008D003F308C00240059
:1004A80090018D012100951722009D010800F3009D
:1004B800F31B5F2A612A0130622A0030F2007008BB
:1004C800860087017208810073087F39F20072087C
:1004D800F3007335F2007108860087017208810005
:1004E80008002000B4008231E2228231803082315B
:1004F8009F2282312000340882319F2282312000DD
:10050800330882319F2282318331092382310800E6
:100518008231E2228231803082319F228231003062
:1005280082319F228231003082319F228231833191
:100538000923823108002000B2003208240091000B
:100548001418A72AA82AA42A161BAB2AAC2AA82A58
:100558008231C02282310800F00070082400910026
:100568001418B72AB82AB42A161BBB2ABC2AB82AD8
:100578008231CC2282310800240016081F39031D5D
:10058800C62AC72AC02A1419CA2ACB2AC02A080090
:10059800240016081F39031DD22AD32ACC2A14197D
:1005A800D62AD72ACC2A08008231C02282312400D8
:1005B80096149618E02AE12ADD2A08008231C02222
:1005C8008231240016141618EA2AEB2AE72A0800B2
:1005D80082314022823183311023823183311E23BC
:1005E800823108008231CC22823124001614161878
:1005F800FE2AFF2AFB2A0800F00023009E1C052B78
:10060800062B012B70089A000800240016151619ED
:100618000E2B0F2B0B2B080070302100990098012E
:100628002200960108002400161516191C2B1D2BF4
:0E063800192B080016302100970008008034AE
:020000040001F9
:04000E00E43FFF1EAE
:00000001FF
