:020000040000FA
:0400000080313F28E4
:100008007E1480312000911E0A280B283D28911269
:1000180023009D181028112815281D1D142815289F
:1000280019289D0190309D003D2819082000AD0039
:100038002D08AF002F088231C622803120002F08FA
:100048000319272828283D28B4302F0203182D2803
:100058002E283D282F08AD00AE012D08C2002E081D
:10006800C3004308AB004208AA0000308131522186
:1000780080317E100900803141282000C201C3016F
:100088007E10200081311A29D7302000BD0017309A
:10009800BE003908B1003808B0003E08B3003D087A
:1000A800B2008031A120803120003108BE00300824
:1000B800BD000130BD020030BE3B3D08BA003A0821
:1000C800BB0000308131C82180312000BA003A08D5
:1000D800BF003F087F391038BA003A08BC003C0816
:1000E800BA003A08B1000030823125228031200060
:1000F8003B08BA003A08B100FE308231252280312F
:1001080020003F08BA003A08B100003082312522A9
:1001180080310D302000BA00FB30890B9128BA0BD2
:100128009128003220003F08A138BA003A08B100EF
:10013800003082312522803108002000B501B60147
:10014800300831040319A928AA28D928B701B70A01
:10015800B6280130B035B10D890BAE280130B40096
:100168003408B707B11FB928BA28AD280130B5350A
:10017800B60D890BBB2831083302031DC52830088A
:100188003202031CC828C928CE283008B202310818
:10019800B33B35140130B136B00C890BCF28013090
:1001A800B702031DD828D928BA283608B10035085F
:1001B800B0000800FB01FC01760877040319E52864
:1001C800E6281529FD01FD0AF2280130F635F70D5C
:1001D800890BEA280130FA007A08FD07F71FF5288D
:1001E800F628E9280130FB35FC0D890BF72877083C
:1001F8007902031D012976087802031C04290529C0
:100208000A297608F8027708F93B7B140130F7369B
:10021800F60C890B0B290130FD02031D1429152941
:10022800F6287C08F7007B08F60008008231B22225
:10023800813123008D01023021008D0024302400FB
:100248008D00023023009E0090309D0008309F00F2
:1002580033309B0020009112210091160B178B1749
:1002680006302000C1001330C000AD30890B3A2998
:10027800C00B3A29C10B3A2900328231522281310E
:1002880032302000B8000030B90080314820813178
:100298002000C201C3014F2980313F282000AC0053
:1002A8002B08A1002A08A0000030A200A300B43047
:1002B800A4000030A5009630A6000030A700F43056
:1002C800A8000130A9008131A32181312000210833
:1002D800AB002008AA000030F100F2002B08F4005F
:1002E8002A08F3002C0881317B2181310800F600AF
:1002F8008231BC2281318030823176228131760888
:10030800F5000130F535FF3E031D86297535063E9B
:1003180082317622813171088231762281317208E8
:1003280082317622813173088231762281317408D4
:100338008231762281318231DD228131080020002C
:1003480022082402F6002308253BF7002208200291
:10035800F0002308213BF10026082802F2002708B4
:10036800293BF3008131EB2181317108F9007008D4
:10037800F8008031DE208131200026087607A000B1
:100388002708773DA10008002000B4008231A82288
:1003980081318030823165228131200034088231F8
:1003A8006522813182319E228131813082316522FC
:1003B8008131013082310A2281312000B3003308B3
:1003C800B5008231CF228131200035080800F401C0
:1003D800F501701CF029F129F5297208F407730852
:1003E800F53D0130F235F30D890BF6290130F13670
:1003F800F00C890BFB2970087104031D042A052AD7
:10040800ED297508F1007408F00008002000B1001B
:10041800310C2400031C9E1203189E169E151C1CEA
:10042800162A172A132A1E1619082000B0003008A9
:10043800B20024001D138231862282312000320846
:1004480008002000B2008231A82282318030823137
:1004580065228231200032088231652282312000F3
:1004680031088231652282318231CF2282310800FF
:1004780022008C018D01FF3021008C00FF308D009F
:10048800FE3023008D001F308C0024008D018C016C
:100498002100951722009D019E0108008231A822A3
:1004A800823180308231652282310030823165228A
:1004B800823100308231652282318231CF2282310D
:1004C80008002000B0003008240099001C186D2A8C
:1004D8006E2A6A2A1E1B712A722A6E2A8231862285
:1004E80082310800F0007008240099001C187D2A49
:1004F8007E2A7A2A1E1B812A822A7E2A8231922209
:100508008231080024001E081F39031D8C2A8D2AF9
:10051800862A1C19902A912A862A080024001E0877
:100528001F39031D982A992A922A1C199C2A9D2A48
:10053800922A080082318622823124009E149E1855
:10054800A62AA72AA32A08008231862282312400FB
:100558001E141E18B02AB12AAD2A080082313C2286
:1005680082318231D62282318231E42282310800FE
:1005780082319222823124001E141E18C42AC52AF0
:10058800C12A0800F00023009E1CCB2ACC2AC72AC7
:1005980070089A00080024001E151E19D42AD52AAE
:1005A800D12A080070302100990098012200960194
:1005B800080024001E151E19E22AE32ADF2A080073
:0805C800163021009700080025
:020000040001F9
:04000E00E43FFF1EAE
:00000001FF
